:020000040800F2
:1000000000500020A9130008B9120008BF12000810
:10001000C5120008CB120008D11200080000000031
:10002000000000000000000000000000D7120008DF
:10003000E312000800000000EF120008FB120008A5
:10004000F1130008F1130008F1130008F113000880
:10005000F1130008F1130008F1130008F113000870
:10006000F1130008F1130008F1130008F113000860
:10007000F1130008F1130008F1130008F113000850
:10008000F1130008F1130008F1130008F113000840
:10009000F1130008F1130008F1130008F113000830
:1000A000F1130008F1130008F11300080913000808
:1000B000F1130008F1130008F1130008F113000810
:1000C000F1130008F1130008F1130008F113000800
:1000D000F1130008F1130008F1130008F1130008F0
:1000E000F11300081D130008F113000800000000C0
:1000F0000000000000000000000000000000000000
:0C01000000000000000000005FF808F1A3
:1001100010B5054C237833B9044B13B10448AFF341
:1001200000800123237010BD5C000020000000004F
:10013000CC4B000808B5034B1BB103490348AFF390
:10014000008008BD0000000060000020CC4B0008CB
:10015000034613F8012B002AFBD1181A0138704707
:1001600081F0004102E000BF83F0004330B54FEA68
:1001700041044FEA430594EA050F08BF90EA020FD5
:100180001FBF54EA000C55EA020C7FEA645C7FEA68
:10019000655C00F0E2804FEA5454D4EB5555B8BF8B
:1001A0006D420CDD2C4480EA020281EA030382EAFC
:1001B000000083EA010180EA020281EA0303362D8E
:1001C00088BF30BD11F0004F4FEA01314FF4801C61
:1001D0004CEA113102D0404261EB410113F0004F73
:1001E0004FEA03334CEA133302D0524263EB43032A
:1001F00094EA050F00F0A780A4F10104D5F1200EC8
:100200000DDB02FA0EFC22FA05F2801841F1000122
:1002100003FA0EF2801843FA05F359410EE0A5F1F6
:1002200020050EF1200E012A03FA0EFC28BF4CF027
:10023000020C43FA05F3C01851EBE37101F00045DD
:1002400007D54FF0000EDCF1000C7EEB00006EEBEA
:100250000101B1F5801F1BD3B1F5001F0CD3490874
:100260005FEA30004FEA3C0C04F101044FEA4452CB
:1002700012F5800F80F09A80BCF1004F08BF5FEA52
:10028000500C50F1000041EB045141EA050130BD32
:100290005FEA4C0C404141EB0101013C28BFB1F544
:1002A000801FE9D291F0000F04BF01460020B1FA8F
:1002B00081F308BF2033A3F10B03B3F120020CDA62
:1002C0000C3208DD02F1140CC2F10C0201FA0CF040
:1002D00021FA02F10CE002F11402D8BFC2F1200CA5
:1002E00001FA02F120FA0CFCDCBF41EA0C0190405B
:1002F000E41AA2BF01EB0451294330BD6FEA0404A4
:100300001F3C1CDA0C340EDC04F11404C4F120028E
:1003100020FA04F001FA02F340EA030021FA04F3A0
:1003200045EA030130BDC4F10C04C4F1200220FAF7
:1003300002F001FA04F340EA0300294630BD21FA35
:1003400004F0294630BD94F0000F83F4801306BFFB
:1003500081F480110134013D4EE77FEA645C18BFEF
:100360007FEA655C29D094EA050F08BF90EA020F86
:1003700005D054EA000C04BF1946104630BD91EA7E
:10038000030F1EBF0021002030BD5FEA545C05D181
:100390004000494128BF41F0004130BD14F58004C0
:1003A0003CBF01F5801130BD01F0004545F0FE4134
:1003B00041F470014FF0000030BD7FEA645C1ABF69
:1003C000194610467FEA655C1CBF0B46024650EAA0
:1003D000013406BF52EA033591EA030F41F40021CC
:1003E00030BD00BF90F0000F04BF0021704730B552
:1003F0004FF4806404F132044FF000054FF0000127
:1004000050E700BF90F0000F04BF0021704730B5E7
:100410004FF4806404F1320410F0004548BF4042BC
:100420004FF000013EE700BF42004FEAE2014FEA11
:1004300031014FEA02701FBF12F07F4393F07F4FEC
:1004400081F06051704732F07F4208BF704793F0EF
:100450007F4F04BF41F40021704730B54FF4607402
:1004600001F0004521F000411CE700BF50EA010205
:1004700008BF704730B54FF000050AE050EA0102AE
:1004800008BF704730B511F0004502D5404261EB1E
:1004900041014FF4806404F132045FEA915C3FF45F
:1004A000D8AE4FF003025FEADC0C18BF03325FEAFC
:1004B000DC0C18BF033202EBDC02C2F1200300FAAD
:1004C00003FC20FA02F001FA03FE40EA0E0021FAD2
:1004D00002F11444BDE600BF70B54FF0FF0C4CF4C0
:1004E000E06C1CEA11541DBF1CEA135594EA0C0F72
:1004F00095EA0C0F00F0DEF82C4481EA030621EAAD
:100500004C5123EA4C5350EA013518BF52EA0335E7
:1005100041F4801143F4801338D0A0FB02CE4FF099
:100520000005E1FB02E506F00042E0FB03E54FF0C9
:100530000006E1FB03569CF0000F18BF4EF0010EC1
:10054000A4F1FF04B6F5007F64F5407404D25FEABD
:100550004E0E6D4146EB060642EAC62141EA555170
:100560004FEAC52040EA5E504FEACE2EB4F1FD0CB2
:1005700088BFBCF5E06F1ED8BEF1004F08BF5FEA30
:10058000500E50F1000041EB045170BD06F00046E2
:1005900046EA010140EA020081EA0301B4EB5C048F
:1005A000C2BFD4EB0C0541EA045170BD41F4801187
:1005B0004FF0000E013C00F3AB8014F1360FDEBFAC
:1005C000002001F0004170BDC4F10004203C35DA88
:1005D0000C341BDC04F11404C4F1200500FA05F30B
:1005E00020FA04F001FA05F240EA020001F00042AC
:1005F00021F0004110EBD37021FA04F642EB060122
:100600005EEA430E08BF20EAD37070BDC4F10C044B
:10061000C4F1200500FA04F320FA05F001FA04F20F
:1006200040EA020001F0004110EBD37041F10001FB
:100630005EEA430E08BF20EAD37070BDC4F1200506
:1006400000FA05F24EEA020E20FA04F301FA05F26E
:1006500043EA020321FA04F001F0004121FA04F216
:1006600020EA020000EBD3705EEA430E08BF20EAE6
:10067000D37070BD94F0000F0FD101F00046400020
:1006800041EB010111F4801F08BF013CF7D041EAA2
:10069000060195F0000F18BF704703F000465200A6
:1006A00043EB030313F4801F08BF013DF7D043EA77
:1006B0000603704794EA0C0F0CEA135518BF95EA2D
:1006C0000C0F0CD050EA410618BF52EA4306D1D1B4
:1006D00081EA030101F000414FF0000070BD50EAD3
:1006E000410606BF1046194652EA430619D094EA5D
:1006F0000C0F02D150EA013613D195EA0C0F05D147
:1007000052EA03361CBF104619460AD181EA03019A
:1007100001F0004141F0FE4141F470014FF0000052
:1007200070BD41F0FE4141F4780170BD70B54FF0ED
:10073000FF0C4CF4E06C1CEA11541DBF1CEA13556D
:1007400094EA0C0F95EA0C0F00F0A7F8A4EB05044F
:1007500081EA030E52EA03354FEA013100F0888046
:100760004FEA03334FF0805545EA131343EA12630F
:100770004FEA022245EA111545EA10654FEA0026C4
:100780000EF000419D4208BF964244F1FD0404F57D
:10079000407402D25B084FEA3202B61A65EB0305D9
:1007A0005B084FEA32024FF480104FF4002CB6EB96
:1007B000020E75EB030E22BFB61A754640EA0C0016
:1007C0005B084FEA3202B6EB020E75EB030E22BF56
:1007D000B61A754640EA5C005B084FEA3202B6EB97
:1007E000020E75EB030E22BFB61A754640EA9C0056
:1007F0005B084FEA3202B6EB020E75EB030E22BF26
:10080000B61A754640EADC0055EA060E18D04FEAE3
:10081000051545EA16754FEA06164FEAC30343EA83
:1008200052734FEAC2025FEA1C1CC0D111F4801F50
:100830000BD141EA00014FF000004FF0004CB6E749
:1008400011F4801F04BF01430020B4F1FD0C88BFE8
:10085000BCF5E06F3FF6AFAEB5EB030C04BFB6EBF3
:10086000020C5FEA500C50F1000041EB045170BDE6
:100870000EF0004E4EEA113114EB5C04C2BFD4EB13
:100880000C0541EA045170BD41F480114FF0000E97
:10089000013C90E645EA060E8DE60CEA135594EA13
:1008A0000C0F08BF95EA0C0F3FF43BAF94EA0C0F16
:1008B0000AD150EA01347FF434AF95EA0C0F7FF48B
:1008C00025AF104619462CE795EA0C0F06D152EADF
:1008D00003353FF4FDAE1046194622E750EA4106C3
:1008E00018BF52EA43067FF4C5AE50EA41047FF4D4
:1008F0000DAF52EA43057FF4EBAE12E74A0011D286
:1009000012F5001211D20DD56FF47873B3EB625269
:100910000ED44FEAC12343F0004343EA505323FA75
:1009200002F070474FF00000704750EA013002D1EA
:100930004FF0FF3070474FF00000704780B588B02F
:1009400000AF0346FB710A2000F0B6FD0023FB61F7
:100950000EE0FB7903F00102FB699B0020333B446E
:1009600043F8142CFB795B08FB71FB690133FB61D5
:10097000FB69032BEDDDFB68DBB21A46012114484D
:1009800001F050F83B69DBB21A460221104801F031
:1009900049F87B69DBB21A4604210D4801F042F8A0
:1009A000BB69DBB21A460821094801F03BF8012275
:1009B0000421084801F036F8022000F07DFD0022F5
:1009C0000421044801F02EF800BF2037BD4680BD49
:1009D00000080140000C014080B582B000AF034622
:1009E000FB71022000F068FD002201210A4801F09D
:1009F00019F800220221084801F014F8FB791B09BC
:100A0000DBB21846FFF79AFFFB791846FFF796FF0F
:100A100000BF0837BD4680BD000C014080B500AF67
:100A2000022000F049FD0220FFF7D6FF2820FFF743
:100A3000D3FF0F20FFF7D0FF00BF80BD80B582B08D
:100A400000AF0346FB71022000F036FD01220121B8
:100A50000A4800F0E7FF00220221084800F0E2FF08
:100A6000FB791B09DBB21846FFF768FFFB791846D4
:100A7000FFF764FF00BF0837BD4680BD000C014092
:100A800080B582B000AF7860022000F015FD07E06D
:100A90007B681B781846FFF7D1FF7B6801337B60CA
:100AA0007B681B78002BF3D100BF00BF0837BD4621
:100AB00080BD80B582B000AF03460A46FB71134685
:100AC000BB71012000F0F8FCBB79002B02D0012B98
:100AD00007D00DE0FB79803BDBB21846FFF77CFFC7
:100AE00006E0FB79403BDBB21846FFF775FF00BF1D
:100AF00000BF0837BD4680BD80B483B000AF034659
:100B0000FB80084B1B6800225A6200BF054B1B6824
:100B10005A6AFB889A42F9D300BF00BF0C37BD4622
:100B200080BC70478C00002080B582B000AF786038
:100B30007B681B7F012B40F08380454B1B78002B8B
:100B40001AD10021786802F053FF0346414A13602E
:100B50003F4B01221A707B681B681A6A7B681B680E
:100B600022F00A021A627B681B681A6A7B681B689B
:100B700042F002021A6263E0354B1B78012B5FD111
:100B80000021786802F034FF0346334A13607B6823
:100B90001B6800225A62304B1A682E4B1B689A421F
:100BA00007D92D4B1A682B4B1B68D31A2B4A13609D
:100BB0000FE0284B1A68284B1B689A4209D9264B2C
:100BC0001A68244B1B68D31A03F57F43FF33234A6B
:100BD0001360224B1B681846FFF704FC1AA3D3E9E5
:100BE0000023FFF779FC02460B46104619464FF0EA
:100BF00000024FF08043FFF799FD02460B46104676
:100C00001946FFF77BFE0346DAB2154B1A70104BFC
:100C100000221A707B681B681A6A7B681B6822F0C6
:100C20000A021A627B681A687B681B68126A1A6279
:100C30000C4B1B68DA680B4B1B6822F00202DA606F
:100C400000BF0837BD4680BD006F8104C58FA13F3E
:100C5000280100201C010020200100202401002088
:100C6000290100208C00002080B483B000AF7860A0
:100C7000034B01221A7000BF0C37BD4680BC704781
:100C80004C01002080B582B000AFC7F804C001223B
:100C90004FF400710B4800F0C5FE0A20FFF72CFF4F
:100CA00000224FF40071074800F0BCFE064B1B68A1
:100CB000DA68054B1B6842F00202DA6000BF0837B1
:100CC000BD4680BD000801408C00002080B582B088
:100CD00000AF07F110037B6000F08CFB00F058F8C8
:100CE00000F092F900F010F900F064F900F0A8F8B3
:100CF00000211F4802F0CCFBFFF790FE00230022EA
:100D00001C491D4802F032F81A4B00221A70194B88
:100D100000225A70174B05229A7000221549164876
:100D200001F0D2FE3B1D9C46FFF7ACFFC82000F04F
:100D3000C3FB124B1B781A461149124803F094FA70
:100D400000210020FFF7B5FE0E48FFF799FE0E4B7D
:100D50001B78002BE6D10B48FFF7FAF903469AB24D
:100D60004FF0FF330749094803F0FEF8DAE700BF08
:100D70008C00002050010020780000202901002074
:100D8000E44B00082C0100204C010020D40000207E
:100D900080B594B000AF07F128032822002118463F
:100DA00003F082FA07F1140300221A605A609A6075
:100DB000DA601A613B1D00221A605A609A60DA609C
:100DC0000A23BB620123BB631023FB6301233B6443
:100DD00002237B640023BB640023FB6407F1280328
:100DE000184600F043FE0346002B01D000F06CF9DA
:100DF0000F237B610223BB610023FB6100233B6265
:100E000000237B6207F114030021184601F0B0F8BB
:100E10000346002B01D000F057F901237B604FF40B
:100E20000073BB603B1D184601F030FA0346002BEF
:100E300001D000F049F900BF5037BD4680BD000029
:100E400080B584B000AF07F10C0300210A461A8078
:100E50000A469A700023BB603B4600221A605A6023
:100E6000274B284A1A60264B4FF0FF325A60244B1A
:100E70004FF480729A60224801F074FB0346002B05
:100E800001D000F021F900233B7300237B73002382
:100E9000BB7307F10C0300221946194801F0EEFB61
:100EA0000346002B01D000F00FF901233B72012310
:100EB0007B720123BB720023FB7207F1080300223F
:100EC00019460F4801F04AFD0346002B01D000F0FF
:100ED000FBF800233B7000237B700023BB700023D2
:100EE0007B603B4600221946054801F087FE034619
:100EF000002B01D000F0E8F800BF1037BD4680BDE0
:100F0000780000200028004080B586B000AF07F1CF
:100F1000100300221A605A603B4600221A605A6091
:100F20009A60DA60214B224A1A60204B07225A60ED
:100F30001E4B00229A601D4B4FF6FE72DA601B4B6F
:100F400000221A61194B00225A61184B00229A6143
:100F5000164802F04DFA0346002B01D000F0B4F819
:100F600000233B6100237B6107F1100319460F4802
:100F700002F03AFF0346002B01D000F0A5F8002351
:100F80003B6001237B600023BB600023FB603B468A
:100F900000221946054802F08FFC0346002B01D0C1
:100FA00000F092F800BF1837BD4680BD8C000020CD
:100FB000002C014080B500AF114B124A1A60104B53
:100FC0004FF416525A600E4B00229A600C4B0022CE
:100FD000DA600B4B00221A61094B0C225A61084B54
:100FE00000229A61064B0022DA61054802F06CFF8C
:100FF0000346002B01D000F067F800BF80BD00BFA2
:10100000D40000200048004080B588B000AF07F150
:10101000100300221A605A609A60DA60274B9B69BD
:10102000264A43F010039361244B9B6903F010039D
:10103000FB60FB68214B9B69204A43F004039361EA
:101040001E4B9B6903F00403BB60BB681B4B9B6991
:101050001A4A43F008039361184B9B6903F0080395
:101060007B607B68002240F20F21154800F0DAFC1B
:1010700000220721134800F0D5FC40F20F233B610A
:1010800001237B610023BB610223FB6107F1100395
:1010900019460B4800F042FB07233B6101237B61AB
:1010A0000023BB610223FB6107F1100319460548C9
:1010B00000F034FB00BF2037BD4680BD0010024069
:1010C00000080140000C014080B400AF72B600BFC0
:1010D000FEE7000080B485B000AF154B9B69144A51
:1010E00043F001039361124B9B6903F00103BB6062
:1010F000BB680F4BDB690E4A43F08053D3610C4B46
:10110000DB6903F080537B607B680A4B5B68FB60A4
:10111000FB6823F0E063FB60FB6843F08063FB60E7
:10112000044AFB68536000BF1437BD4680BC70475B
:10113000001002400000014080B584B000AF78602C
:101140007B681B680F4A934218D100F083FC0E4B5A
:10115000DB690D4A43F00063D3610B4BDB6903F09D
:101160000063FB60FB68094B01221A60002200212A
:10117000292000F09CFA292000F0B5FA00BF1037B2
:10118000BD4680BD00280040001002403C044242A1
:1011900080B588B000AF786007F1100300221A60B4
:1011A0005A609A60DA607B681B681A4A93422CD1B5
:1011B000194B9B69184A43F400639361164B9B6972
:1011C00003F40063FB60FB68134B9B69124A43F016
:1011D00004039361104B9B6903F00403BB60BB687D
:1011E0004FF480733B6100237B610023BB6107F1F7
:1011F00010031946094800F091FA002200211B2033
:1012000000F055FA1B2000F06EFA00BF2037BD46F3
:1012100080BD00BF002C01400010024000080140CA
:1012200080B588B000AF786007F1100300221A6023
:101230005A609A60DA607B681B681C4A934231D11D
:101240001B4BDB691A4A43F48023D361184BDB69DB
:1012500003F48023FB60FB68154B9B69144A43F041
:1012600008039361124B9B6903F00803BB60BB68E2
:101270004FF480633B6102237B610323FB6107F131
:10128000100319460B4800F049FA4FF400633B6124
:1012900000237B610023BB6107F110031946054859
:1012A00000F03CFA00BF2037BD4680BD004800403A
:1012B00000100240000C014080B400AFFEE780B493
:1012C00000AFFEE780B400AFFEE780B400AFFEE7FA
:1012D00080B400AFFEE780B400AF00BFBD4680BC65
:1012E000704780B400AF00BFBD4680BC704780B47B
:1012F00000AF00BFBD4680BC704780B500AF00F0B6
:10130000BFF800BF80BD000080B500AF024802F00A
:10131000CBF900BF80BD00BF8C00002080B500AFBE
:10132000024801F099FD00BF80BD00BF7800002099
:1013300080B586B000AF7860144A154BD31A7B6134
:101340007B693B61134B1B68002B02D1114B124A86
:101350001A60104B1A687B6813443A699A4207D2A4
:1013600002F0AAFF03460C221A604FF0FF3309E097
:10137000084B1B68FB60074B1A687B681344054ADF
:101380001360FB6818461837BD4680BD005000202A
:101390000004000058010020A802002080B400AF23
:1013A00000BFBD4680BC7047FFF7F8FF0B480C49F3
:1013B0000C4A002302E0D458C4500433C4188C42B1
:1013C000F9D3094A094C002301E013600432A24218
:1013D000FBD302F077FFFFF779FC70470000002095
:1013E0005C000020744C00085C000020A802002073
:1013F000FEE7000080B500AF084B1B68074A43F0CA
:1014000010031360032000F047F90F2000F008F8E4
:10141000FFF760FE0023184680BD00BF0020024099
:1014200080B582B000AF7860124B1A68124B1B78FF
:1014300019464FF47A73B3FBF1F3B2FBF3F318469A
:1014400000F05FF90346002B01D001230EE07B681A
:101450000F2B0AD8002279684FF0FF3000F027F9EF
:10146000064A7B681360002300E001231846083712
:10147000BD4680BD000000200800002004000020C0
:1014800080B400AF054B1B781A46054B1B6813440C
:10149000034A136000BFBD4680BC704708000020AF
:1014A0005C01002080B400AF024B1B681846BD46AB
:1014B00080BC70475C01002080B584B000AF7860CC
:1014C000FFF7F0FFB8607B68FB60FB68B3F1FF3F9C
:1014D00005D00A4B1B781A46FB681344FB6000BF1B
:1014E000FFF7E0FF0246BB68D31AFA689A42F7D8C2
:1014F00000BF00BF1037BD4680BD00BF0800002000
:1015000080B485B000AF78607B6803F00703FB60B0
:101510000C4BDB68BB60BA684FF6FF031340BB603F
:10152000FB681A02BB68134343F0BF6343F4003304
:10153000BB60044ABB68D36000BF1437BD4680BCA3
:10154000704700BF00ED00E080B400AF044BDB68E3
:101550001B0A03F007031846BD4680BC704700BF56
:1015600000ED00E080B483B000AF0346FB7197F953
:101570000730002B0BDBFB7903F01F02064997F9BC
:1015800007305B09012000FA02F241F8232000BF76
:101590000C37BD4680BC704700E100E080B483B0EA
:1015A00000AF03463960FB7197F90730002B0ADB67
:1015B0003B68DAB20C4997F907301201D2B20B44FA
:1015C00083F800230AE03B68DAB20849FB7903F0AC
:1015D0000F03043B1201D2B20B441A7600BF0C3742
:1015E000BD4680BC704700BF00E100E000ED00E0B8
:1015F00080B489B000AFF860B9607A60FB6803F02E
:101600000703FB61FB69C3F10703042B28BF042315
:10161000BB61FB690433062B02D9FB69033B00E085
:1016200000237B614FF0FF32BB6902FA03F3DA4318
:10163000BB681A407B699A404FF0FF317B6901FA21
:1016400003F3D9437B680B40134318462437BD4648
:1016500080BC704780B582B000AF78607B68013B8A
:10166000B3F1807F01D301230FE00A4A7B68013B7D
:1016700053600F214FF0FF30FFF790FF054B002222
:101680009A60044B07221A60002318460837BD46AB
:1016900080BD00BF10E000E080B582B000AF786090
:1016A0007868FFF72DFF00BF0837BD4680BD80B5C5
:1016B00086B000AF0346B9607A60FB7300237B619C
:1016C000FFF742FF78617A68B9687869FFF790FFA1
:1016D000024697F90F3011461846FFF75FFF00BF2B
:1016E0001837BD4680BD80B582B000AF0346FB71A0
:1016F00097F907301846FFF735FF00BF0837BD469A
:1017000080BD80B582B000AF78607868FFF7A2FF37
:10171000034618460837BD4680BD000080B48BB034
:1017200000AF7860396000237B6200233B6269E18F
:1017300001227B6A02FA03F3FB613B681B68FA69CA
:101740001340BB61BA69FB699A4240F058813B681B
:101750005B689A4A93425ED0984A934275D8984AF9
:10176000934258D0964A93426FD8964A934252D0A9
:10177000944A934269D8944A93424CD0924A9342F5
:1017800063D8924A934246D0904A93425DD8122B36
:101790002AD8122B59D801A252F823F017180008A2
:1017A000F117000803180008451800084B18000836
:1017B0004B1800084B1800084B1800084B1800087D
:1017C0004B1800084B1800084B1800084B1800086D
:1017D0004B1800084B1800084B1800084B1800085D
:1017E000F91700080D180008794A934213D02CE02D
:1017F0003B68DB683B6229E03B68DB6804333B62A3
:1018000024E03B68DB6808333B621FE03B68DB6831
:101810000C333B621AE03B689B68002B02D1042327
:101820003B6213E03B689B68012B05D108233B62B8
:101830007B68FA691A6109E008233B627B68FA69F0
:101840005A6103E000233B6200E000BFBB69FF2B4D
:1018500001D87B6801E07B6804337B61BB69FF2BA7
:1018600002D87B6A9B0002E07B6A083B9B003B61DD
:101870007B691A680F213B6901FA03F3DB431A40C5
:10188000396A3B6901FA03F31A437B691A603B68C2
:101890005B6803F08053002B00F0B1804D4B9B69D7
:1018A0004C4A43F0010393614A4B9B6903F00103E7
:1018B000BB60BB68484A7B6A9B08023352F82330FE
:1018C000FB607B6A03F003039B000F2202FA03F321
:1018D000DB43FA681340FB607B68404A934213D0B5
:1018E0007B683F4A93420DD07B683E4A934207D0C3
:1018F0007B683D4A934201D1032306E0042304E0C0
:10190000022302E0012300E000237A6A02F00302CE
:1019100092009340FA681343FB602F497B6A9B084F
:101920000233FA6841F823203B685B6803F48013B4
:10193000002B06D02D4B9A682C49BB6913438B6052
:1019400006E02A4B9A68BB69DB43284913408B6049
:101950003B685B6803F40013002B06D0234BDA6866
:101960002249BB691343CB6006E0204BDA68BB69B0
:10197000DB431E491340CB603B685B6803F40033D4
:10198000002B06D0194B5A681849BB6913434B60AA
:1019900006E0164B5A68BB69DB43144913404B60A1
:1019A0003B685B6803F48033002B21D00F4B1A682F
:1019B0000E49BB6913430B6021E000BF00003210E9
:1019C0000000311000002210000021100000121051
:1019D000000011100010024000000140000801400A
:1019E000000C0140001001400014014000040140BF
:1019F0000B4B1A68BB69DB43094913400B607B6AD8
:101A000001337B623B681A687B6A22FA03F3002B7E
:101A10007FF48EAE00BF00BF2C37BD4680BC704740
:101A20000004014080B483B000AF78600B467B8037
:101A300013467B707B78002B03D07A887B681A6111
:101A400003E07B881A047B681A6100BF0C37BD462F
:101A500080BC704780B400AF034B01221A6000BF06
:101A6000BD4680BC704700BF20000E4280B586B0E6
:101A700000AF78607B68002B01D1012372E27B68A4
:101A80001B6803F00103002B00F08780924B5B681A
:101A900003F00C03042B0CD08F4B5B6803F00C039A
:101AA000082B12D18C4B5B6803F48033B3F5803F75
:101AB0000BD1894B1B6803F40033002B6CD07B687F
:101AC0005B68002B68D101234CE27B685B68B3F54F
:101AD000803F06D1804B1B687F4A43F480331360FC
:101AE0002EE07B685B68002B0CD17B4B1B687A4A2D
:101AF00023F480331360784B1B68774A23F48023E8
:101B000013601DE07B685B68B3F5A02F0CD1724BAE
:101B10001B68714A43F4802313606F4B1B686E4A45
:101B200043F4803313600BE06B4B1B686A4A23F469
:101B300080331360684B1B68674A23F4802313606B
:101B40007B685B68002B13D0FFF7ACFC386108E0C2
:101B5000FFF7A8FC02463B69D31A642B01D9032383
:101B600000E25D4B1B6803F40033002BF0D014E05F
:101B7000FFF798FC386108E0FFF794FC02463B69E8
:101B8000D31A642B01D90323ECE1534B1B6803F4F4
:101B90000033002BF0D100E000BF7B681B6803F02E
:101BA0000203002B63D04C4B5B6803F00C03002B4B
:101BB0000BD0494B5B6803F00C03082B1CD1464B40
:101BC0005B6803F48033002B16D1434B1B6803F092
:101BD0000203002B05D07B681B69012B01D0012378
:101BE000C0E13D4B1B6823F0F8027B685B69DB00BA
:101BF000394913430B603AE07B681B69002B20D006
:101C0000364B01221A60FFF74DFC386108E0FFF700
:101C100049FC02463B69D31A022B01D90323A1E1F7
:101C20002D4B1B6803F00203002BF0D02A4B1B68DE
:101C300023F0F8027B685B69DB00274913430B60E4
:101C400015E0264B00221A60FFF72CFC386108E0F3
:101C5000FFF728FC02463B69D31A022B01D9032364
:101C600080E11D4B1B6803F00203002BF0D17B6861
:101C70001B6803F00803002B3AD07B689B69002B9C
:101C800019D0174B01221A60FFF70CFC386108E0ED
:101C9000FFF708FC02463B69D31A022B01D9032344
:101CA00060E10D4B5B6A03F00203002BF0D00120D2
:101CB00000F0CEFA1CE00A4B00221A60FFF7F2FB9C
:101CC00038610FE0FFF7EEFB02463B69D31A022BA7
:101CD00008D9032346E100BF001002400000424241
:101CE00080044242924B5B6A03F00203002BE9D16D
:101CF0007B681B6803F00403002B00F0A680002320
:101D0000FB758B4BDB6903F08053002B0DD1884BA7
:101D1000DB69874A43F08053D361854BDB6903F06D
:101D20008053BB60BB680123FB75824B1B6803F4C7
:101D30008073002B18D17F4B1B687E4A43F480735D
:101D40001360FFF7AFFB386108E0FFF7ABFB02461B
:101D50003B69D31A642B01D9032303E1754B1B683C
:101D600003F48073002BF0D07B68DB68012B06D175
:101D70006F4B1B6A6E4A43F0010313622DE07B68D0
:101D8000DB68002B0CD16A4B1B6A694A23F0010304
:101D90001362674B1B6A664A23F0040313621CE05C
:101DA0007B68DB68052B0CD1614B1B6A604A43F0F2
:101DB000040313625E4B1B6A5D4A43F00103136226
:101DC0000BE05B4B1B6A5A4A23F001031362584B2A
:101DD0001B6A574A23F0040313627B68DB68002BFD
:101DE00015D0FFF75FFB38610AE0FFF75BFB0246A7
:101DF0003B69D31A41F28832934201D90323B1E0FF
:101E00004B4B1B6A03F00203002BEED014E0FFF7EC
:101E100049FB38610AE0FFF745FB02463B69D31AEC
:101E200041F28832934201D903239BE0404B1B6A65
:101E300003F00203002BEED1FB7D012B05D13C4BBF
:101E4000DB693B4A23F08053D3617B68DB69002B5D
:101E500000F08780364B5B6803F00C03082B61D0E1
:101E60007B68DB69022B46D1334B00221A60FFF7F7
:101E700019FB386108E0FFF715FB02463B69D31AEE
:101E8000022B01D903236DE0294B1B6803F000737B
:101E9000002BF0D17B681B6AB3F5803F08D1244B3F
:101EA0005B6823F400327B689B68214913434B60D5
:101EB0001F4B5B6823F474127B68196A7B685B6A4A
:101EC0000B431B4913434B601B4B01221A60FFF766
:101ED000E9FA386108E0FFF7E5FA02463B69D31AF0
:101EE000022B01D903233DE0114B1B6803F0007363
:101EF000002BF0D035E0104B00221A60FFF7D2FA29
:101F0000386108E0FFF7CEFA02463B69D31A022B8C
:101F100001D9032326E0064B1B6803F00073002B56
:101F2000F0D11EE07B68DB69012B07D1012319E0AA
:101F30000010024000700040600042420B4B5B68A2
:101F4000FB60FB6803F480327B681B6A9A4206D10F
:101F5000FB6803F470127B685B6A9A4201D001232C
:101F600000E0002318461837BD4680BD001002402F
:101F700080B584B000AF786039607B68002B01D1F8
:101F80000123D0E06A4B1B6803F007033A689A42CA
:101F900010D9674B1B6823F0070265493B68134360
:101FA0000B60634B1B6803F007033A689A4201D049
:101FB0000123B8E07B681B6803F00203002B20D0EC
:101FC0007B681B6803F00403002B05D0594B5B684A
:101FD000584A43F4E06353607B681B6803F00803CE
:101FE000002B05D0534B5B68524A43F46053536057
:101FF000504B5B6823F0F0027B689B684D491343AC
:102000004B607B681B6803F00103002B40D07B68AA
:102010005B68012B07D1474B1B6803F40033002B8F
:1020200015D101237FE07B685B68022B07D1414B10
:102030001B6803F00073002B09D1012373E03D4BB3
:102040001B6803F00203002B01D101236BE0394B25
:102050005B6823F003027B685B68364913434B607F
:10206000FFF720FAF8600AE0FFF71CFA0246FB6867
:10207000D31A41F28832934201D9032353E02D4B06
:102080005B6803F00C027B685B689B009A42EBD1B3
:10209000274B1B6803F007033A689A4210D2244B7F
:1020A0001B6823F0070222493B6813430B60204B57
:1020B0001B6803F007033A689A4201D0012332E01B
:1020C0007B681B6803F00403002B08D0194B5B6886
:1020D00023F4E0627B68DB68164913434B607B683E
:1020E0001B6803F00803002B09D0124B5B6823F434
:1020F00060527B681B69DB000E4913434B6000F0A4
:1021000021F802460B4B5B681B0903F00F030A49D9
:10211000CB5C22FA03F3094A1360094B1B6818468B
:10212000FFF77EF9002318461037BD4680BD00BF7B
:102130000020024000100240F84B00080000002080
:102140000400002080B487B000AF0023FB600023B0
:10215000BB6000237B6100237B6000233B611E4B3F
:102160005B68FB60FB6803F00C03042B02D0082BB8
:1021700003D027E0194B3B6127E0FB689B0C03F081
:102180000F03174AD35C7B60FB6803F48033002B9A
:1021900010D0114B5B685B0C03F00103114AD35C58
:1021A000BB607B680D4A03FB02F2BB68B2FBF3F332
:1021B0007B6104E07B680C4A02FB03F37B617B6973
:1021C0003B6102E0054B3B6100BF3B6918461C3791
:1021D000BD4680BC704700BF0010024000127A006C
:1021E000104C0008204C000800093D0080B400AFEE
:1021F000024B1B681846BD4680BC7047000000209B
:1022000080B500AFFFF7F2FF0246054B5B681B0A83
:1022100003F007030349CB5C22FA03F3184680BDA1
:1022200000100240084C000880B500AFFFF7DEFF49
:102230000246054B5B68DB0A03F007030349CB5CEE
:1022400022FA03F3184680BD00100240084C000833
:1022500080B485B000AF78600A4B1B680A4AA2FBC5
:1022600003235B0A7A6802FB03F3FB6000BFFB6891
:102270005A1EFA60002BF9D100BF00BF1437BD46CB
:1022800080BC704700000020D34D621080B586B03E
:1022900000AF786000233B610023FB607B681B6814
:1022A00003F00103002B7DD00023FB754F4BDB694E
:1022B00003F08053002B0DD14C4BDB694B4A43F0AC
:1022C0008053D361494BDB6903F08053BB60BB682B
:1022D0000123FB75464B1B6803F48073002B18D158
:1022E000434B1B68424A43F480731360FFF7DAF8EC
:1022F000386108E0FFF7D6F802463B69D31A642B31
:1023000001D903236DE03A4B1B6803F48073002B63
:10231000F0D0364B1B6A03F44073FB60FB68002B64
:102320002ED07B685B6803F44073FA689A4227D02A
:102330002E4B1B6A23F44073FB602E4B01221A6064
:102340002C4B00221A60294AFB681362FB6803F0D9
:102350000103002B14D0FFF7A5F838610AE0FFF75E
:10236000A1F802463B69D31A41F28832934201D95F
:10237000032336E01D4B1B6A03F00203002BEED053
:102380001A4B1B6A23F440727B685B68174913433E
:102390000B62FB7D012B05D1144BDB69134A23F043
:1023A0008053D3617B681B6803F00203002B08D0C5
:1023B0000E4B5B6823F440427B689B680B491343D8
:1023C0004B607B681B6803F01003002B08D0074BA1
:1023D0005B6823F480027B68DB68044913434B602D
:1023E000002318461837BD4680BD00BF00100240CC
:1023F000007000404004424280B588B000AF786071
:1024000000237B610023FB6100233B610023FB6011
:102410000023BB617B68102B0AD07B68102B00F275
:102420008A807B68012B45D07B68022B75D082E0C7
:10243000464B5B68FB60454B1B6803F08073002BC9
:102440007BD0FB689B0C03F00F03414AD35C3B61DC
:10245000FB6803F48033002B15D03C4B5B685B0CAE
:1024600003F001033B4AD35C7B61FB6803F48033D8
:10247000002B0DD0384A7B69B2FBF3F23B6902FBBB
:1024800003F3FB6104E03B69344A02FB03F3FB61A5
:102490002E4B5B6803F48003B3F5800F02D1FB6918
:1024A000BB614AE0FB695B002D4AA2FB03235B088A
:1024B000BB6142E0254B1B6AFB60FB6803F4407381
:1024C000B3F5807F08D1FB6803F00203002B03D033
:1024D0004FF40043BB611FE0FB6803F44073B3F5A6
:1024E000007F09D1194B5B6A03F00203002B03D074
:1024F00049F64043BB610FE0FB6803F44073B3F55A
:10250000407F1CD1114B1B6803F40033002B16D005
:102510004FF22443BB6112E011E0FFF785FE024653
:102520000A4B5B689B0B03F0030301335B00B2FBB8
:10253000F3F3BB6104E000BF02E000BF00E000BFB6
:10254000BB6918462037BD4680BD00BF0010024061
:10255000244C0008344C000800127A0000093D00A9
:10256000ABAAAAAA80B584B000AF78600023FB6054
:102570007B68002B01D101237AE07B685B7CDBB2B6
:10258000002B05D17B6800221A747868FEF7D4FD11
:102590007B6802225A74786800F088FC0346002B9E
:1025A00004D07B6804225A74012361E0786800F04B
:1025B00041FD0346002B04D07B6804225A7401239A
:1025C00056E07B681B685A687B681B6822F007022C
:1025D0005A607B689B68002B05D0274B1B6B264AF3
:1025E00023F001031363244BDB6A23F460727B68DE
:1025F0009B6821491343CB627B685B68B3F1FF3F63
:1026000003D07B685B68FB600EE00120FFF7F4FEFF
:10261000F860FB68002B04D17B6804225A74012304
:1026200026E0FB68013BFB60FB681A0C7B681B68BB
:1026300002F00F029A607B681B68FA6892B2DA6057
:10264000786800F01FFD0346002B04D07B6804224D
:102650005A7401230CE07B680022DA737B68012244
:102660005A737B6801229A737B6801225A74002393
:1026700018461037BD4680BD006C004090B587B04D
:1026800000AFF860B9607A6000237B6100233B6192
:10269000FB68002B02D0BB68002B01D1012380E036
:1026A000FB681B7C012B01D102237AE0FB6801222D
:1026B0001A74FB6802225A747B68002B13D1BB6822
:1026C0001B781A464FF4616303FB02F2BB685B7828
:1026D00019460B461B015B1A9B001344BA6892789B
:1026E00013447B611EE0BB681B78184600F00FFDA9
:1026F00003461A464FF4616303FB02F4BB685B7840
:10270000184600F004FD03461A4613461B019B1AA7
:102710009B001C44BB689B78184600F0F8FC0346FD
:1027200023447B617969F86800F01DFC0346002BA7
:1027300007D0FB6804225A74FB6800221A74012334
:102740002FE0FB681B685A68FB681B6822F00502D3
:102750005A60F86800F02EFC38613B69B3F1FF3F26
:1027600018D03A697B699A4214D23B6903F5A833C1
:1027700003F5C0733B613969F86800F034FC034627
:10278000002B07D0FB6804225A74FB6800221A74DD
:10279000012306E0FB6801225A74FB6800221A74C8
:1027A000002318461C37BD4690BD000080B588B098
:1027B00000AFF860B9607A600023BB610023FB6161
:1027C00000237B6100233B61FB68002B02D0BB68C8
:1027D000002B01D10123B5E0FB681B685B6803F0A7
:1027E0000403002B01D00123ACE0F86800F08BFB60
:1027F000B861BB69554AA2FB0323DB0A3B61BA6996
:10280000524BA3FB0213DB0A4FF4616101FB03F39C
:10281000D31A4F4AA2FB03235B09DAB2BB685A7092
:10282000BB694A4AA2FB0312D20A4FF4616101FB61
:1028300002F29A1A464BA3FB021359090B461B01DD
:102840005B1A9B00D11ACAB2BB689A703B69172BFE
:1028500055D93B693F4AA2FB03231B097B613969B8
:102860003C4BA3FB01231A0913465B001344DB0016
:10287000CA1AD2B2BB681A70F86800F09BFBF86104
:10288000FB69B3F1FF3F08D0FA69BB699A4204D9EA
:10289000FA69BB69D31AFB6102E04FF0FF33FB61B9
:1028A0007B692D4A02FB03F3BA69D31ABB61B9698C
:1028B000F86800F058FB0346002B01D0012341E0EB
:1028C000FB69B3F1FF3F0CD0FA69BB691344FB61AC
:1028D000F969F86800F087FB0346002B0AD0012352
:1028E00030E0F969F86800F07EFB0346002B01D068
:1028F000012327E07969F86800F026FC03E03B69D2
:10290000DAB2BB681A707B68002B1AD0BB681B78E0
:10291000184600F0DFFB03461A46BB681A70BB6816
:102920005B78184600F0D6FB03461A46BB685A701F
:10293000BB689B78184600F0CDFB03461A46BB687F
:102940009A70002318462037BD4680BDC5B3A291BA
:1029500089888888ABAAAAAA8051010080B588B06E
:1029600000AFF860B9607A600023FB610023BB61AF
:1029700000237B61FB68002B02D0BB68002B01D1D8
:10298000012397E0FB681B7C012B01D1022391E01E
:10299000FB6801221A74FB6802225A747B68002BC0
:1029A0000CD1BB68DA78FB68DA73BB685A78FB68CD
:1029B0005A73BB689A78FB689A731AE0BB68DB7835
:1029C000184600F0A4FB03461A46FB68DA73BB689E
:1029D0005B78184600F09BFB03461A46FB685A7367
:1029E000BB689B78184600F092FB03461A46FB68CA
:1029F0009A73FB68DB7B1846FB68597BFB689B7B03
:102A00001A4600F07DFC03461A46FB681A73FB6801
:102A10001A7BBB681A70F86800F075FAF861FB69F8
:102A2000264AA2FB0323DB0A7B617B69182B3AD978
:102A30007B69234AA2FB03231B09224A02FB03F3FF
:102A4000FA69D31AFB61F969F86800F08CFA034659
:102A5000002B07D0FB6804225A74FB6800221A740A
:102A6000012327E0F86800F0A5FAB861BB69B3F16B
:102A7000FF3F18D0BA69FB699A4214D2BB6903F5CB
:102A8000A83303F5C073BB61B969F86800F0ABFA0D
:102A90000346002B07D0FB6804225A74FB6800220F
:102AA0001A74012306E0FB6801225A74FB680022B5
:102AB0001A74002318462037BD4680BDC5B3A291C5
:102AC000ABAAAAAA8051010090B589B000AFF86006
:102AD000B9607A600023FB6107F1140300210A4604
:102AE0001A800A469A70FB68002B02D0BB68002B44
:102AF00001D101237DE0FB681B7C012B01D1022366
:102B000077E0FB6801221A74FB6802225A7407F10D
:102B1000140300221946F868FFF748FE0346002B0D
:102B200001D0012365E03B7D1A464FF4616303FB4E
:102B300002F27B7D19460B461B015B1A9B00134476
:102B4000BA7D1344BB617B68002B13D1BB681B7833
:102B50001A464FF4616303FB02F2BB685B781946C7
:102B60000B461B015B1A9B001344BA68927813440E
:102B7000FB611EE0BB681B78184600F0C8FA0346EC
:102B80001A464FF4616303FB02F4BB685B78184696
:102B900000F0BDFA03461A4613461B019B1A9B0020
:102BA0001C44BB689B78184600F0B1FA03462344E6
:102BB000FB61FA69BB699A4205D2FB6903F5A83348
:102BC00003F5C073FB61F969F86800F00CFA03467D
:102BD000002B07D0FB6804225A74FB6800221A7489
:102BE000012306E0FB6801225A74FB6800221A7474
:102BF000002318462437BD4690BD000090B589B02B
:102C000000AFF860B9607A600023FB6107F114033C
:102C100000210A461A800A469A70FB68002B02D0EF
:102C2000BB68002B01D1012399E0FB681B7C012BC1
:102C300001D1022393E0FB6801221A74FB6802228F
:102C40005A7407F1140300221946F868FFF7AEFD25
:102C50000346002B01D0012381E03B7D1A464FF44F
:102C6000616303FB02F27B7D19460B461B015B1A75
:102C70009B001344BA7D1344BB617B68002B13D1C6
:102C8000BB681B781A464FF4616303FB02F2BB6812
:102C90005B7819460B461B015B1A9B001344BA680C
:102CA00092781344FB611EE0BB681B78184600F065
:102CB0002EFA03461A464FF4616303FB02F4BB6825
:102CC0005B78184600F023FA03461A4613461B01A8
:102CD0009B1A9B001C44BB689B78184600F017FAAF
:102CE00003462344FB61FA69BB699A4205D2FB693A
:102CF00003F5A83303F5C073FB61F969F86800F0C8
:102D000072F90346002B07D0FB6804225A74FB6853
:102D100000221A74012322E0FB681B685A68FB68D2
:102D20001B6822F002025A60FB681B681A68FB6885
:102D30001B6842F002021A600B4B1B680A4A43F4FC
:102D400000331360084B9B68074A43F400339360D9
:102D5000FB6801225A74FB6800221A74002318468B
:102D60002437BD4690BD00BF0004014080B586B049
:102D700000AFF860B9607A603B6000237B61FB685C
:102D8000002B02D0BB68002B01D101235AE0F86868
:102D900000F010F978617B692C4AA2FB0323D90A61
:102DA0002B4BA3FB01231A0913465B001344DB00E2
:102DB000CA1AD2B2BB681A707A69244BA3FB0213F9
:102DC000DB0A4FF4616101FB03F3D31A214AA2FB32
:102DD00003235B09DAB2BB685A707B691B4AA2FB0A
:102DE0000312D20A4FF4616101FB02F29A1A194BE5
:102DF000A3FB021359090B461B015B1A9B00D11A56
:102E0000CAB2BB689A703B68002B1AD0BB681B78AB
:102E1000184600F05FF903461A46BB681A70BB6893
:102E20005B78184600F056F903461A46BB685A709C
:102E3000BB689B78184600F04DF903461A46BB68FC
:102E40009A70002318461837BD4680BDC5B3A291BD
:102E5000ABAAAAAA8988888880B582B000AF7860BA
:102E60007B681B681B6803F00203002B11D07B6892
:102E70001B685B6803F00203002B0AD07868FDF73B
:102E8000F3FE7B681B685A687B681B6822F00202AD
:102E90005A60054B4FF400325A617B6801225A7424
:102EA00000BF0837BD4680BD0004014080B584B036
:102EB00000AF78600023FB607B68002B01D1012309
:102EC0001DE07B681B685A687B681B6822F008025B
:102ED0005A60FEF7E7FAF86009E0FEF7E3FA024607
:102EE000FB68D31AB3F57A7F01D9032307E07B6827
:102EF0001B685B6803F00803002BEED00023184624
:102F00001037BD4680BD80B487B000AF7860002325
:102F10007B8200233B820023FB8100237B617B6853
:102F20001B689B697B827B681B68DB69FB817B6814
:102F30001B689B693B827A8A3B8A9A4208D03B8A0B
:102F40001A047B681B68DB699BB213437B6104E056
:102F50007B8A1A04FB8913437B617B6918461C3703
:102F6000BD4680BC704780B584B000AF78603960E2
:102F70000023FB73786800F05DF80346002B02D055
:102F80000123FB7311E07B681B683A68120C9A619D
:102F90007B681B683A6892B2DA61786800F072F870
:102FA0000346002B01D00123FB73FB7B184610372F
:102FB000BD4680BD80B485B000AF78600023FB8142
:102FC0000023BB817B681B681B6AFB817B681B68D5
:102FD0005B6ABB81FB891A04BB891343184614370B
:102FE000BD4680BC704780B584B000AF7860396062
:102FF0000023FB73786800F01DF80346002B02D015
:103000000123FB7311E07B681B683A68120C1A629B
:103010007B681B683A6892B25A62786800F032F8AE
:103020000346002B01D00123FB73FB7B18461037AE
:10303000BD4680BD80B584B000AF78600023FB60E2
:10304000FEF730FAF86009E0FEF72CFA0246FB685A
:10305000D31AB3F57A7F01D903230FE07B681B688D
:103060005B6803F02003002BEED07B681B685A6876
:103070007B681B6842F010025A6000231846103724
:10308000BD4680BD80B584B000AF78600023FB6092
:103090007B681B685A687B681B6822F010025A60C4
:1030A000FEF700FAF86009E0FEF7FCF90246FB685B
:1030B000D31AB3F57A7F01D9032307E07B681B6835
:1030C0005B6803F02003002BEED000231846103776
:1030D000BD4680BD80B485B000AF0346FB710023C0
:1030E000FB6005E0FB680133FB60FB790A3BFB7189
:1030F000FB79092BF6D8FB68DBB21B01DAB2FB794E
:103100001343DBB218461437BD4680BC704780B409
:1031100085B000AF0346FB710023FB60FB791B0900
:10312000DBB21A4613469B0013445B00FB60FB793D
:1031300003F00F03DAB2FB68DBB21344DBB21846CC
:103140001437BD4680BC704780B586B000AF78604C
:10315000396000237B6100233B610023FB60002377
:10316000BB607B68DB7B7B617B685B7B3B617B68F7
:103170009B7BFB600023BB606FE03B69012B11D0A0
:103180003B69032B0ED03B69052B0BD03B69072B0A
:1031900008D03B69082B05D03B690A2B02D03B695C
:1031A0000C2B17D1FB681E2B03D8FB680133FB6087
:1031B00050E03B690C2B05D03B6901333B61012397
:1031C000FB6047E001233B610123FB607B69013326
:1031D0007B613FE03B69042B08D03B69062B05D09F
:1031E0003B69092B02D03B690B2B0CD1FB681D2BD3
:1031F00003D8FB680133FB602CE03B6901333B6182
:103200000123FB6026E03B69022B23D1FB681B2BCB
:1032100003D8FB680133FB601CE0FB681C2B11D159
:103220007B699BB2184600F039F80346002B03D0A7
:10323000FB680133FB600DE03B6901333B61012317
:10324000FB6007E0FB681D2B04D13B6901333B6148
:103250000123FB60BB680133BB60BA683B689A42DC
:103260008BD37B69DAB27B68DA733B69DAB27B684D
:103270005A73FB68DAB27B689A733B69DBB2FA680F
:10328000D2B21946786900F03BF803461A467B68CB
:103290001A7300BF1837BD4680BD000080B483B0EC
:1032A00000AF0346FB80FB8803F003039BB2002BB7
:1032B00001D000231DE0FB88104AA2FB0312520933
:1032C000642101FB02F29B1A9BB2002B01D0012367
:1032D0000FE0FB88094AA2FB0312D2094FF4C87120
:1032E00001FB02F29B1A9BB2002B01D1012300E0EB
:1032F000002318460C37BD4680BC70471F85EB5134
:1033000080B485B000AF78600B46FB701346BB708D
:103310000023BB600023FB607B6803F5FA63BB609E
:10332000FB78022B2DD8FA7813465B001344DB00A0
:103330009B1A2C4AA2FB03235A08BB781A44BB6889
:103340001A44BB68013B9B081A44BB68013B2649F1
:10335000A1FB03135B09D21ABB68013B2249A1FB05
:103360000313DB0913441A1D204BA3FB0213D11ACC
:1033700049080B4499080B46DB005B1AD31AFB6023
:1033800029E0FA7813465B001344DB009B1A154AC8
:10339000A2FB03235A08BB781A44BB681A44BB68D3
:1033A0009B081A44BB681049A1FB03135B09D21A9E
:1033B000BB680D49A1FB0313DB0913449A1C0B4B9B
:1033C000A3FB0213D11A49080B4499080B46DB00F2
:1033D0005B1AD31AFB60FB68DBB218461437BD4694
:1033E00080BC7047398EE3381F85EB512549922404
:1033F00080B582B000AF78607B68002B01D10123DB
:1034000041E07B6893F83D30DBB2002B06D17B684E
:10341000002283F83C207868FDF7BAFE7B68022220
:1034200083F83D207B681A687B6804331946104690
:1034300000F046FB7B68012283F846207B6801226E
:1034400083F83E207B68012283F83F207B680122BD
:1034500083F840207B68012283F841207B680122A9
:1034600083F842207B68012283F843207B68012295
:1034700083F844207B68012283F845207B68012281
:1034800083F83D20002318460837BD4680BD000064
:1034900080B584B000AF786039600023FB733B686F
:1034A000002B04D17B6893F83E30DBB213E03B681D
:1034B000042B04D17B6893F83F30DBB20BE03B6810
:1034C000082B04D17B6893F84030DBB203E07B68C3
:1034D00093F84130DBB2BB733B68002B04D17B68AF
:1034E00093F84230DBB213E03B68042B04D17B68D5
:1034F00093F84330DBB20BE03B68082B04D17B68C8
:1035000093F84430DBB203E07B6893F84530DBB2DC
:103510007B73BB7B012B02D17B7B012B01D0012371
:10352000B8E03B68002B04D17B68022283F83E2080
:1035300013E03B68042B04D17B68022283F83F2010
:103540000BE03B68082B04D17B68022283F8402003
:1035500003E07B68022283F841203B68002B04D102
:103560007B68022283F8422013E03B68042B04D1DD
:103570007B68022283F843200BE03B68082B04D1D0
:103580007B68022283F8442003E07B68022283F8F0
:1035900045203B680C2B41D801A252F823F000BF14
:1035A000D53500081D3600081D3600081D360008F8
:1035B000E73500081D3600081D3600081D360008D6
:1035C000F93500081D3600081D3600081D360008B4
:1035D0000B3600087B681B68DA687B681B6842F062
:1035E0000202DA601DE07B681B68DA687B681B6892
:1035F00042F00402DA6014E07B681B68DA687B68DA
:103600001B6842F00802DA600BE07B681B68DA682E
:103610007B681B6842F01002DA6002E00123FB7352
:1036200000BFFB7B002B34D17B681B68012239680B
:10363000184600F0B4FB7B681B68184A93420ED012
:103640007B681B68B3F1804F09D07B681B68144A04
:10365000934204D07B681B68124A934211D17B6865
:103660001B689B6803F00703BB60BB68062B10D088
:103670007B681B681A687B681B6842F001021A604D
:1036800007E07B681B681A687B681B6842F00102D0
:103690001A60FB7B18461037BD4680BD002C0140E8
:1036A000000400400008004080B582B000AF7860A0
:1036B0007B681B681B6903F00203022B22D17B6825
:1036C0001B68DB6803F00203022B1BD17B681B68BD
:1036D0006FF002021A617B6801221A777B681B680F
:1036E0009B6903F00303002B03D07868FDF71CFAF5
:1036F00005E0786800F0C9F9786800F0CFF97B68D8
:1037000000221A777B681B681B6903F00403042BF3
:1037100022D17B681B68DB6803F00403042B1BD1F8
:103720007B681B686FF004021A617B6802221A77BB
:103730007B681B689B6903F44073002B03D0786897
:10374000FDF7F2F905E0786800F09FF9786800F07D
:10375000A5F97B6800221A777B681B681B6903F058
:103760000803082B22D17B681B68DB6803F0080381
:10377000082B1BD17B681B686FF008021A617B68FD
:1037800004221A777B681B68DB6903F00303002BB4
:1037900003D07868FDF7C8F905E0786800F075F99E
:1037A000786800F07BF97B6800221A777B681B68D9
:1037B0001B6903F01003102B22D17B681B68DB68A8
:1037C00003F01003102B1BD17B681B686FF01002F5
:1037D0001A617B6808221A777B681B68DB6903F42F
:1037E0004073002B03D07868FDF79EF905E07868F8
:1037F00000F04BF9786800F051F97B6800221A77E5
:103800007B681B681B6903F00103012B0ED17B68E9
:103810001B68DB6803F00103012B07D17B681B6881
:103820006FF001021A61786800F026F97B681B6866
:103830001B6903F08003802B0ED17B681B68DB685B
:1038400003F08003802B07D17B681B686FF0800238
:103850001A61786800F02FFB7B681B681B6903F016
:103860004003402B0ED17B681B68DB6803F04003EC
:10387000402B07D17B681B686FF040021A617868A3
:1038800000F015F97B681B681B6903F02003202BEF
:103890000ED17B681B68DB6803F02003202B07D167
:1038A0007B681B686FF020021A61786800F0FAFAF2
:1038B00000BF0837BD4680BD80B586B000AFF86058
:1038C000B9607A600023FB75FB6893F83C30012BEC
:1038D00001D1022388E0FB68012283F83C207B6849
:1038E000002B1BD1FB681868BB681968BB685A6855
:1038F000BB68DB6800F046F9FB681B689A69FB68E7
:103900001B6822F00C029A61FB681B689969BB680E
:103910009A68FB681B680A439A6160E07B68042B25
:103920001CD1FB681868BB681968BB685A68BB681B
:10393000DB6800F081F9FB681B689A69FB681B680B
:1039400022F440629A61FB681B689969BB689B68B6
:103950001A02FB681B680A439A6140E07B68082BE7
:103960001BD1FB681868BB681968BB685A68BB68DC
:10397000DB6800F09DF9FB681B68DA69FB681B686F
:1039800022F00C02DA61FB681B68D969BB689A688F
:10399000FB681B680A43DA6121E07B680C2B1CD1B1
:1039A000FB681868BB681968BB685A68BB68DB6845
:1039B00000F0B9F9FB681B68DA69FB681B6822F440
:1039C0004062DA61FB681B68D969BB689B681A02B0
:1039D000FB681B680A43DA6101E00123FB75FB68A1
:1039E000002283F83C20FB7D18461837BD4680BD79
:1039F00080B485B000AF786039600023FB603B681D
:103A00000C2B31D801A252F823F000BF413A000834
:103A1000693A0008693A0008693A00084B3A000818
:103A2000693A0008693A0008693A0008553A0008FE
:103A3000693A0008693A0008693A00085F3A0008E4
:103A40007B681B685B6BFB600FE07B681B689B6B94
:103A5000FB600AE07B681B68DB6BFB6005E07B6852
:103A60001B681B6CFB6000E000BFFB681846143746
:103A7000BD4680BC704700BF80B483B000AF7860A3
:103A800000BF0C37BD4680BC704780B483B000AF28
:103A9000786000BF0C37BD4680BC704780B483B0EF
:103AA00000AF786000BF0C37BD4680BC704780B463
:103AB00083B000AF786000BF0C37BD4680BC704754
:103AC00080B485B000AF786039607B681B68FB60AC
:103AD0007B68294A93420BD07B68B3F1804F07D0B3
:103AE0007B68264A934203D07B68254A934208D1DB
:103AF000FB6823F07003FB603B685B68FA68134364
:103B0000FB607B681C4A93420BD07B68B3F1804F0B
:103B100007D07B68194A934203D07B68184A9342C6
:103B200008D1FB6823F44073FB603B68DB68FA68EC
:103B30001343FB60FB6823F080023B685B6913431F
:103B4000FB607B68FA681A603B689A687B68DA6297
:103B50003B681A687B689A627B68074A934203D184
:103B60003B681A697B681A637B6801225A6100BF4F
:103B70001437BD4680BC7047002C01400004004053
:103B80000008004080B487B000AFF860B9607A6088
:103B90003B60FB681B6A3B61FB681B6A23F0010208
:103BA000FB681A62FB689B697B61FB681F4A934252
:103BB0000BD0FB68B3F1804F07D0FB681C4A9342DF
:103BC00003D0FB681B4A934201D1012300E000238C
:103BD000002B08D07B6923F003037B617A697B6843
:103BE00013437B6103E07B6943F001037B617B69E5
:103BF00023F0F0037B613B681B01DBB27A6913435E
:103C00007B613B6923F00A033B61BB6803F00A0355
:103C10003A6913433B61FB687A699A61FB683A69C8
:103C20001A6200BF1C37BD4680BC7047002C0140A3
:103C3000000400400008004080B487B000AFF86086
:103C4000B9607A603B60FB681B6A7B61FB681B6A3A
:103C500023F01002FB681A62FB689B693B613B69B9
:103C600023F440733B617B681B023A6913433B6159
:103C70003B6923F470433B613B681B039BB23A6989
:103C800013433B617B6923F0A0037B61BB681B018D
:103C900003F0A0037A6913437B61FB683A699A6178
:103CA000FB687A691A6200BF1C37BD4680BC70474A
:103CB00080B487B000AFF860B9607A603B60FB68A1
:103CC0001B6A7B61FB681B6A23F48072FB681A62C3
:103CD000FB68DB693B613B6923F003033B613A69A5
:103CE0007B6813433B613B6923F0F0033B613B6816
:103CF0001B01DBB23A6913433B617B6923F4007318
:103D00007B61BB681B0203F400737A6913437B6118
:103D1000FB683A69DA61FB687A691A6200BF1C378E
:103D2000BD4680BC704780B487B000AFF860B96012
:103D30007A603B60FB681B6A7B61FB681B6A23F44B
:103D40008052FB681A62FB68DB693B613B6923F4C4
:103D500040733B617B681B023A6913433B613B69DB
:103D600023F470433B613B681B039BB23A691343E6
:103D70003B617B6923F400537B61BB681B0303F445
:103D800000537A6913437B61FB683A69DA61FB6827
:103D90007A691A6200BF1C37BD4680BC704780B488
:103DA00087B000AFF860B9607A60BB6803F01F03AA
:103DB000012202FA03F37B61FB681A6A7B69DB4329
:103DC0001A40FB681A62FB681A6ABB6803F01F039B
:103DD000796801FA03F31A43FB681A6200BF1C37C3
:103DE000BD4680BC7047000080B485B000AF7860ED
:103DF00039607B6893F83C30012B01D1022346E007
:103E00007B68012283F83C207B68022283F83D20F6
:103E10007B681B685B68FB607B681B689B68BB609A
:103E2000FB6823F07003FB603B681B68FA68134370
:103E3000FB607B681B68FA685A607B681B68164ADF
:103E400093420ED07B681B68B3F1804F09D07B682A
:103E50001B68124A934204D07B681B68104A934245
:103E60000CD1BB6823F08003BB603B685B68BA6819
:103E70001343BB607B681B68BA689A607B68012249
:103E800083F83D207B68002283F83C2000231846FD
:103E90001437BD4680BC7047002C01400004004030
:103EA0000008004080B483B000AF786000BF0C37DA
:103EB000BD4680BC704780B483B000AF786000BF5F
:103EC0000C37BD4680BC704780B582B000AF7860CB
:103ED0007B68002B01D1012342E07B6893F84130DD
:103EE000DBB2002B06D17B68002283F84020786883
:103EF000FDF796F97B68242283F841207B681B68D4
:103F0000DA687B681B6822F40052DA60786800F097
:103F10001DF97B681B681A697B681B6822F4904254
:103F20001A617B681B685A697B681B6822F02A0249
:103F30005A617B681B68DA687B681B6842F4005230
:103F4000DA607B6800225A647B68202283F8412073
:103F50007B68202283F842207B6800225A6300237A
:103F600018460837BD4680BD80B58AB002AFF860FC
:103F7000B9603B601346FB8000237B61FB6893F8CC
:103F80004130DBB2202B6DD1BB68002B02D0FB8807
:103F9000002B01D1012366E0FB6800225A64FB6814
:103FA000212283F84120FDF77DFA7861FB68FA88C9
:103FB0009A84FB68FA88DA84FB689B68B3F5805FB3
:103FC00008D1FB681B69002B04D10023FB61BB688F
:103FD000BB6103E0BB68FB610023BB612AE03B6877
:103FE00000937B6900228021F86800F040F80346C6
:103FF000002B01D0032336E0FB69002B0BD1BB69FA
:104000001B881A46FB681B68C2F308025A60BB692A
:104010000233BB6107E0FB691A78FB681B685A60D2
:10402000FB690133FB61FB68DB8C9BB2013B9AB2FD
:10403000FB68DA84FB68DB8C9BB2002BCFD13B683A
:1040400000937B6900224021F86800F010F80346D5
:10405000002B01D0032306E0FB68202283F84120D7
:10406000002300E0022318462037BD4680BD80B5FE
:1040700090B000AFF860B9603B601346FB7150E050
:10408000BB6CB3F1FF3F4CD0BB6C002B07D0FDF7EE
:1040900009FA02463B68D31ABA6C9A4241D2FB68CD
:1040A0001B680C33BB62BB6A53E8003F7B627B6AD0
:1040B00023F4D073FB63FB681B680C33FA6B7A63E1
:1040C0003B63396B7A6B41E80023FB62FB6A002B90
:1040D000E5D1FB681B6814337B617B6953E8003FC3
:1040E0003B613B6923F00103BB63FB681B6814332E
:1040F000BA6B3A62FB61F9693A6A41E80023BB6135
:10410000BB69002BE5D1FB68202283F84120FB68C6
:10411000202283F84220FB68002283F840200323FA
:104120000FE0FB681B681A68BB681340BA689A42C4
:104130000CBF01230023DBB21A46FB799A429FD0C1
:10414000002318464037BD4680BD000080B584B0CE
:1041500000AF78607B681B681B6923F440517B6863
:10416000DA687B681B680A431A617B689A687B6817
:104170001B691A437B685B691343BB607B681B68E0
:10418000DB6823F4B05323F00C037A681268B96833
:104190000B43D3607B681B685B6923F440717B68C9
:1041A0009A697B681B680A435A617B681B682C4AC2
:1041B000934203D1FEF738F8F86002E0FEF720F8EA
:1041C000F860FA6813469B0013449A001A447B680F
:1041D0005B689B00B2FBF3F3224AA2FB03235B095B
:1041E0001901FA6813469B0013449A001A447B682D
:1041F0005B689B00B2FBF3F21A4BA3FB02035B0963
:10420000642000FB03F3D31A1B013233154AA2FBCF
:1042100003235B0903F0F0031944FA6813469B007B
:1042200013449A001A447B685B689B00B2FBF3F26C
:104230000C4BA3FB02035B09642000FB03F3D31ABE
:104240001B013233074AA2FB03235B0903F00F0271
:104250007B681B680A449A6000BF1037BD4680BD6A
:10426000003801401F85EB510EB46FF0004100B5DE
:104270009CB01DAB02900690079104910848094933
:1042800053F8042B0591006802A9019300F08EF900
:104290000022029B1A701CB05DF804EB03B070475B
:1042A000580000200802FFFF03460244934200D159
:1042B000704703F8011BF9E7014B1868704700BF0E
:1042C0005800002070B500260C4D0D4C641BA41046
:1042D000A64209D100F07AFC00260A4D0A4C641B64
:1042E000A410A64205D170BD55F8043B984701368D
:1042F000EEE755F8043B98470136F2E76C4C0008AE
:104300006C4C00086C4C0008704C000870477047FB
:1043100038B50546002940D051F8043C0C1F002B4D
:10432000B8BFE41800F0DCF81C4A136833B96360C6
:1043300014602846BDE8384000F0D8B8A34208D938
:10434000206821188B4201BF19685B680918216039
:10435000EDE71A465B680BB1A342FAD91168501811
:10436000A0420BD120680144501883421160E0D173
:1043700018685B68084410605360DAE702D90C23C0
:104380002B60D6E7206821188B4201BF19685B6853
:104390000918216063605460CBE738BDA00200209B
:1043A00070B50E4E0C463168054611B900F0AAFBF7
:1043B00030602146284600F0A5FB431C0AD0C41CEF
:1043C00024F00304A04207D0211A284600F09AFBEB
:1043D000013001D14FF0FF34204670BDA40200200F
:1043E0002DE9F843CD1C25F0030508350C2D38BF09
:1043F0000C25002D074601DBA94205D90C23002618
:104400003B603046BDE8F883DFF8D08000F068F804
:10441000D8F800301C465CBB29463846FFF7C0FF81
:10442000431C044655D1D8F800402646002E45D1FD
:10443000002C48D023683146384604EB030900F0CD
:1044400061FB81453FD1216838466D1A2946FFF747
:10445000A7FF013037D023682B442360D8F8003001
:10446000002B38D05A68A2422BD100225A600FE0AC
:104470002268521B1FD40B2A17D96119A342256049
:1044800018BF5960636808BFC8F8001062514B60DC
:10449000384604F10B0600F029F826F00706231D24
:1044A000F21AAED09B1BA350ABE7A3426268DDD1EA
:1044B000C8F80020ECE723466468ACE73446766829
:1044C000B4E71346CCE70C2338463B6000F00EF807
:1044D00097E72560DCE75B60FFDE00BFA0020020FD
:1044E0000148FFF713BF00BF9C0200200148FFF7FF
:1044F0000EBF00BF9C0200202DE9F0471F468E68CA
:104500008246BE420C4690460B682CD88A8912F42B
:10451000906F26D06569096905EB4505A3EB010994
:1045200005EBD5757B1C4B446D109D4238BF1D4675
:10453000530527D52946FFF753FF064660B34A4681
:10454000216900F0FDFAA38923F4906343F080030E
:10455000A38126614E4426603E466561A5EB0905B0
:10456000A560BE4200D93E4632464146206800F072
:10457000AFFA0020A3689B1BA36023683344236029
:10458000BDE8F0872A4600F0E9FA06460028E0D1A7
:1045900050462169FFF7BCFE0C23CAF80030A389FE
:1045A0004FF0FF3043F04003A381E9E72DE9F04FDE
:1045B00098468B8907461B060D4614469DB00ED5BE
:1045C0000B6963B94021FFF70BFF2860286120B910
:1045D0000C233B604FF0FF30D0E040236B610023A1
:1045E000099320238DF8293030234FF00109CDF8AD
:1045F0000C80DFF8A0818DF82A3023469A4613F804
:10460000012B0AB1252AF9D1BAEB040B0BD05B467A
:10461000224629463846FFF76FFF013000F0A98097
:10462000099A5A4409929AF80030002B00F0A180B0
:1046300000234FF0FF32CDE905230AF1010A04936C
:1046400007938DF853301A935446052214F8011B32
:10465000504800F067FA049AD8B9D00644BF202326
:104660008DF85330110744BF2B238DF853309AF83F
:1046700000302A2B15D0544600204FF00A0C079A20
:10468000214611F8013B303B092B4DD9B0B10792BF
:1046900014E0A0EB080309FA03F31343A2460493C2
:1046A000D2E7039B191D1B680391002BBBBF5B4224
:1046B00042F0020207930793B8BF049223782E2B8F
:1046C0000CD163782A2B34D1039B02341A1D1B684A
:1046D0000392002BB8BF4FF0FF330593DFF8B8A06B
:1046E00003225046217800F01DFA38B14022049B85
:1046F000A0EB0A00824013430134049314F8011B19
:10470000062226488DF8281000F00CFA002838D030
:10471000234B1BBB039B073323F00703083303938F
:10472000099B3344099368E70C4601200CFB0232D5
:10473000A6E700234FF00A0C1946013405932046E2
:1047400010F8012B303A092A03D9002BC6D0059165
:10475000C4E7044601230CFB0121F0E703AB0093FF
:104760002A4638460F4B04A9AFF30080421C064688
:10477000D6D1AB895B063FF52DAF09981DB0BDE8DA
:10478000F08F03AB00932A463846064B04A900F08D
:104790007DF8EBE7364C00083C4C0008404C000824
:1047A00000000000F94400082DE9F047164699463C
:1047B0008A680B6907469342B8BF1346336091F885
:1047C00043200C46DDF820800AB1013333602368B2
:1047D000990642BF336802333360256815F0060539
:1047E00006D104F1190AE36832689B1AAB422BDC4C
:1047F00094F84320131E226818BF0123920630D478
:104800004946384604F14302C047013023D02368AB
:10481000226903F00603042B14BF002533684FF010
:10482000000608BFE56804F11A0408BFED1A54F841
:10483000123C08BF25EAE5759342C4BF9B1AED18E8
:10484000B5421AD1002008E00123524649463846B5
:10485000C047013003D14FF0FF30BDE8F08701358C
:10486000C1E73020E11881F843005A1C94F8451044
:104870002244023382F84310C2E70123224649460C
:104880003846C0470130E6D00136D9E72DE9FF4769
:104890000F7E9146782F80460C469A460C9D01F17A
:1048A000430207D8622F0AD8002F00F0D580582F76
:1048B00000F0C18004F1420584F842703AE0A7F1AB
:1048C0006303152BF6D801A151F823F02549000800
:1048D00039490008B5480008B5480008B54800083F
:1048E000B548000839490008B5480008B54800082F
:1048F000B5480008B54800083F4A00086549000867
:10490000F9490008B5480008B5480008614A0008A0
:10491000B548000865490008B5480008B5480008D2
:10492000014A00082B681A1D1B682A6004F1420521
:1049300084F842300123A0E020682B68070603F1C9
:104940000401296001D51E6803E04606FBD5B3F9D2
:104950000060002E03DA2D23764284F843300A23C8
:10496000594812E02B682068191D2960050601D5F9
:104970001E6802E04106FBD51E886F2F0CBF08237E
:104980000A235148002184F843106568002DA8BF10
:104990002168A560A4BF21F0040121600EB9002D9B
:1049A0004BD01546B6FBF3F103FB1167C75D05F865
:1049B000017D3746BB420E46F4D9082B0BD1236844
:1049C000DE0708D5236961689942DEBF302305F808
:1049D000013C05F1FF35521B22614B462146404602
:1049E000CDF800A003AAFFF7DFFE01304AD14FF057
:1049F000FF3004B0BDE8F087236843F02003236054
:104A00007827324884F84570236829681F0651F8D2
:104A1000046B02D45F0648BFB6B2DF0748BF43F05D
:104A20002003296048BF23601EB9236823F02003B8
:104A300023601023A6E72448E4E71546BDE72B686A
:104A40002668181D6169286035061B6801D5196044
:104A500002E07006FBD51980002315462361BCE7F0
:104A60002B6800211A1D2A601D686268284600F024
:104A700059F808B1401B606063682361002384F823
:104A80004330AAE72A46494640462369D0470130C9
:104A9000ADD023689B0713D4E068039B9842B8BF4E
:104AA0001846A6E70123324649464046D047013022
:104AB0009DD00135E36803995B1AAB42F2DCEBE76A
:104AC000002504F11906F5E7474C0008584C00088A
:104AD000884210B501EB020402D98442234607D86C
:104AE000431EA14208D011F8012B03F8012FF8E76B
:104AF000014602448A4200D110BD13F8014D02F86C
:104B0000014DF7E738B50023054D044608462B60F4
:104B1000FCF70EFC431C02D12B6803B1236038BDA7
:104B200098020020034610B5C9B2024493421846C9
:104B300001D1002003E0047801338C42F6D110BD8E
:104B40000A44914200F1FF3300D1704710B511F8CB
:104B5000014B914203F8014FF9D110BD2DE9F0410D
:104B6000804614460E4621B91146BDE8F041FFF7D4
:104B700037BC2AB9FFF7CCFB25462846BDE8F081B3
:104B800000F01BF88442074602D8B4EB500F12D84D
:104B900021464046FFF724FC05460028EDD0BC42E4
:104BA0002246314628BF3A46FFF7CAFF3146404603
:104BB000FFF7AEFBE1E73546DFE751F8043C181F8D
:104BC000002BBCBF0B58C01870470000F8B500BFE1
:104BD000F8BC08BC9E467047F8B500BFF8BC08BCDE
:044BE0009E46704736
:104BE40044697374616E6365203D20253464200D2F
:104BF4000A0000000000000000000000010203049D
:104C0400060708090000000001020304020304056A
:104C1400060708090A0B0C0D0E0F10100102000004
:104C240002030405060708090A0B0C0D0E0F1010E9
:104C34000102232D302B2000686C4C00656667450B
:104C44004647003031323334353637383941424300
:104C540044454600303132333435363738396162B1
:084C64006364656600000000B6
:044C6C003501000806
:044C70001101000826
:104C74000024F40010000000010000000000000007
:104C840060010020C8010020300200200000000064
:104C94000000000000000000000000000000000010
:104CA4000000000000000000000000000000000000
:104CB40000000000000000000000000000000000F0
:0C4CC40000000000000000000C000020B8
:04000005080013A933
:00000001FF
